S01A0000656B5F7261346D335F626172656D6574616C2E7372656328
S31500000000A0080020A1070000450600009D0700008B
S315000000109D0700009D0700009D0700009D0700004A
S315000000200000000000000000000000009D07000026
S315000000309D070000000000009D070000D1000000A1
S315000000400348044B834202D0034B03B11847704761
S31500000050080000200800002000000000064B0749A9
S31500000060C91A891048BF0131491003D0044B0BB19E
S3150000007001481847704700BF08000020080000200C
S315000000800000000010B5064C237843B9FFF7D8FFEF
S31500000090044B13B10448AFF300800123237010BD55
S315000000A02800002000000000040B000008B5054BE6
S315000000B01BB105490548AFF30080BDE80840FFF7CE
S315000000C0CDBF00BF000000002C000020040B000084
S315000000D0024A136801331360704700BF44000020D2
S315000000E010B5EFF3108C012383F310881A4B1A68AE
S315000000F02AB94FF0400E194CE27084F803E01A68F2
S3150000010001321A608CF3108801294FEA1022144933
S31500000110C0B200EB021051F8202022F0011222F4A6
S3150000012040420CBF42F0050242F0040241F8202092
S31500000130EFF31082012181F31088196811B1196853
S31500000140013919601B681BB980200449CB70C8703F
S3150000015082F3108810BD00BF90000020000D0840FB
S31500000160000808404FF47A7100F040BA002300B549
S3150000017083B001A8019300F02BFA00F00FF803B04A
S315000001805DF804FB022800D070470249024800F0DF
S3150000019007B900BF240900004800002008B5012166
S315000001A04FF48060FFF79CFFFA20FFF7DBFF012189
S315000001B040F20440FFF794FFFA20FFF7D3FF012136
S315000001C040F20F40FFF78CFFFA20FFF7CBFF00212C
S315000001D04FF48060FFF784FFFA20FFF7C3FF00218A
S315000001E040F20440FFF77CFFFA20FFF7BBFF002137
S315000001F040F20F40FFF774FFFA20FFF7B3FFCEE798
S3150000020008B5FFF7B3FF002008BD00BF2DE9F84F82
S315000002100388DBB182464FF0000B4FF00109DFF88F
S31500000220D0800024304D4FEACB07DAF8043035F899
S31500000230022BD919898891420AD00134032CF4D1B2
S31500000240BAF800300BF1010B5B45EAD8BDE8F88F30
S31500000250DB5909FA04F603F0B853B3F1807FF6B21E
S3150000026098F8BB3413D0334231D1204A04F120062A
S3150000027012F81630DB09E0D012F81630012123F00F
S315000002808003C82002F8163000F0B0F9D5E73342F3
S3150000029011D0164A04F1200112F81130DB09CCD135
S315000002A012F81130C82043F0800302F81130012102
S315000002B000F09CF9C1E7012000F046FA98F8BB343B
S315000002C00120334388F8BB3400F00EFAE1E7012041
S315000002D000F03AFA98F8BB34012023EA060388F8BE
S315000002E0BB3400F001FAC0E7F00A00000030084015
S315000002F000E00140F8B50646FFF788FFEFF31082ED
S31500000300012383F31088234F3B681BB92249CB7026
S315000003104023CB703B6801333B6082F310883388FF
S3150000032023B300211D4D08E01B01134445F823406B
S31500000330328801318BB29A4218D9736853F831402A
S3150000034003EBC1029288E0034FEA1223D2B2EBD547
S3150000035002EB031055F820E024F4803C2EF4803E96
S3150000036045F820E01B0145F820C0DEE7EFF31082D8
S31500000370012383F310883B6813B13B68013B3B6064
S315000003803B681BB980200449CB70C87082F3108883
S31500000390F8BD00BF90000020000D0840000808408E
S315000003A008B5034B03600846FFF7A4FF002008BD0D
S315000003B054524F50064B074993F826001A6A51F8D3
S315000003C02030C2F302620449D3400B60704700BF7D
S315000003D000E00140080000209C000020704700BF9C
S315000003E0F8B54AF2035001234249434AA1F8FE03F5
S315000003F0A2F80431B2F804319BB2002BFAD10120E5
S315000004004FF400454FF0090C3C4CDFF80CE13C4E34
S31500000410C4F804E0DFF804E13A4FC4F80CE0A2F8AF
S315000004200001394A3349B06030602760A560256114
S31500000430626191F82620086A54F82220334EC0F3F0
S315000004400260C240326081F8133481F8A2C091F88C
S3150000045080341BB991F88134990746D0254D95F81B
S315000004608034002B36D00022224B83F8812483F877
S31500000470802400231F4981F8323091F83C301A0756
S31500000480FBD543F2021000231A4A088581F82A3068
S3150000049092F83C309B06FBD5012005231649F12531
S315000004A081F81C011A49116282F8263092F826302A
S315000004B0106A54F82310C0F30260C1403160002472
S315000004C0F0204FF42541134B1D731C721873A2F8CC
S315000004D0FE13F8BD0121C82085F8801400F086F8C7
S315000004E095F88034012BFBD1BDE74FF47A70FFF706
S315000004F075FFBEE700E0014000C001400800002093
S3150000050000700040002D310100C2EB0B9C00002062
S31500000510211202210020004000127A0000366E01EE
S3150000052038B50025284C0121C82084F8285000F051
S315000005305DF884F8245094F82430002BFBD194F80D
S315000005402430214943F0020384F8243091F8243002
S31500000550C3F340009B07F9D41B4A81F8220092F8A6
S31500000560223003F0FF00002BF9D192F840301649F3
S3150000057060F3C71382F8403091F84030DB09FBD1B5
S3150000058091F84200104A63F3C71081F8420092F8CE
S315000005904230DB09FBD192F844000B4963F3C710E4
S315000005A082F8440091F84430C3F3C014DB09F9D152
S315000005B0012000F0C9F8054B012083F8BB44BDE8D3
S315000005C0384000F091B800BF0030084000E001401C
S315000005D00346024A00201A60704700BF0000090562
S315000005E0A0F101000028FBD1704700BF4FF47A73D9
S315000005F010B400FB01F1114C114A2468B2FBF4F26D
S31500000600A1FB03043CB9B0FBF2F0800860B15DF8D1
S31500000610044BFFF7E5BF9200B1FBF2F1A1FB031318
S315000006202BB908460028F2D15DF8044B70474FF00D
S31500000630FF3C5DF8044B6046FFF7D2BF9C000020EC
S3150000064000CA9A3B70B500240B4B0C4EB3F8202120
S31500000650B3F84051ADB2154025FA04F3DB0704D5D3
S3150000066056F82430E0B203B198470134102CF3D188
S31500000670014BA3F8305170BD0060004050000020CF
S3150000068010B5032084B000F05FF84FF0FF326FF032
S31500000690FF011148114B04889964CDE901220392A8
S315000006A01CB16FF001031A4601930C490C4B0A6703
S315000006B0C3F88022029A03204A67C3F88422039A69
S315000006C08A67C3F8882200F00FF814B1054BC3F807
S315000006D0004304B010BD00BFF80A000000800040CF
S315000006E000E100E000600040EFF31081012383F396
S315000006F01088124B33F8102092B22AB133F810202A
S31500000700013A92B223F8102033F810309BB293B915
S3150000071010B40B4A0B4CB2F8FE3334F810009BB2FF
S3150000072043F4254323EA0003A2F8FE3381F310883D
S315000007305DF8044B704781F31088704794000020E1
S3150000074000E00140FC0A000030B4EFF31081012301
S3150000075083F310880E4A32F810309BB26BB90D4CF9
S315000007600D4DB4F8FE3335F810C09BB243EA0C03C6
S3150000077043F425439BB2A4F8FE3332F8103001331C
S315000007809BB222F8103081F3108830BC704700BF4E
S315000007909400002000E00140FC0A000000BE704703
S315000007A008B500F003F8FFF72BFDFEE74FF47002E3
S315000007B070B52B4B2B4CC3F8882000209C60FFF7AC
S315000007C0E1FCFFF70DFE0120FFF7DCFC2368A3F533
S315000007D0806383F30A882448244A0021121A00F011
S315000007E057F82348234A2449121A00F059F8234D92
S315000007F0234B5B1B002B07DD00249E1055F8043BA2
S3150000080001349847A642F9DCFFF7D4FDFFF788FECE
S315000008100320FFF799FF00234FF6FF70194903F1F4
S3150000082008020133092B21F81200F8D10024032015
S31500000830FFF75AFF0320FFF787FF134B03205C6087
S315000008409C60DC601C61FFF74FFF0220FFF79AFCFB
S31500000850FFF716FF2046BDE8704000F017B800BF4E
S3150000086000ED00E00000000028000020A0000020AD
S315000008700000002008000020300B000000000020CF
S3150000088004000020000D084000000E40704700BF25
S3150000089002440346934200D1704703F8011BF9E76F
S315000008A00A44431E914200D1704710B511F8014B1E
S315000008B0914203F8014FF9D110BDFFFF4275696CF3
S315000008C07420776974682052656E65736173204180
S315000008D06476616E63656420466C657869626C65F2
S315000008E020536F667477617265205061636B616730
S315000008F0652076657273696F6E20352E392E30004D
S31500000900352E392E3000000000000905F8B500BF6D
S31500000910F8BC08BC9E467047F8B500BFF8BC08BCDA
S315000009209E467047380000003009000000000000B5
S3150000093000800000000000000080000001000000B0
S3150000094000800000030000000040000005000000D9
S3150000095000400000060000000080000007000000C4
S315000009601040000008000000008000000E0000009B
S31500000970008000000F0000000000010400010000DC
S315000009800000010401010000040000000501000050
S31500000990000001000801000000000100090100003C
S315000009A0000001000A010000040000000B01000025
S315000009B0040000000F010000000001060202000012
S315000009C00000010603020000000001060402000008
S315000009D000000106050200000000010606020000F4
S315000009E000000106070200000000010000030000ED
S315000009F000000106020300000400000003030000DB
S31500000A0004000000040300000000011105030000BB
S31500000A100000011106030000000001110703000099
S31500000A200000011108030000000001110903000085
S31500000A30000001110A030000040000000B0300007F
S31500000A40040000000004000004000000040400008C
S31500000A500000011307040000000001030804000061
S31500000A601040000009040000104000000E040000C1
S31500000A70040000000F040000000001130005000040
S31500000A8000000113010500000080000005050000BC
S31500000A900080000006050000000001070B050000AD
S31500000AA0000001070C0500004000010501060000DA
S31500000AB04000010502060000040000000B060000CD
S31500000AC0040000000C0600000400000008070000F7
S31500000AD00400000009070000040000000A070000E7
S31500000AE0040000000C070000040000000D070000D1
S31500000AF0020403040404FFFF0000FFFF01000200DC
S31500000B00080010001000000000000000017A5200EA
S31500000B10027C0E011B0C0D001000000018000000E6
S31500000B2000000000100000000000000000000000AF
S30D00000B30AD0000008500000085
S3150100A100FFFFFFFFFFFFFFFFFFFFFFFFFFFFFFFF58
S3090100A134FFFFFFFF24
S3150100A200FFFDFFFFFFFFFFFFFFFFFFFFFFFFFFFF59
S3150100A210FFFFFFFFFFFFFFFFFFFFFFFFFFFFFFFF47
S3150100A220FFFFFFFFFFFFFFFFFFFFFFFFFFFFFFFF37
S3150100A230FFFFFFFFFFFFFFFFFFFFFFFFFFFFFFFF27
S3150100A240FFFFFFFFFFFFFFFFFFFFFFFFFFFFFFFF17
S3150100A250FFFFFFFFFFFFFFFFFFFFFFFFFFFFFFFF07
S3150100A260FFFFFFFFFFFFFFFFFFFFFFFFFFFFFFFFF7
S3150100A270FFFFFFFFFFFFFFFFFFFFFFFFFFFFFFFFE7
S3150100A280F8F8FFFFFFFFFFFFFFFFFFFFFFFFFFFFE5
S3150100A290FFFFFFFFFFFFFFFFFFFFFFFFFFFFFFFFC7
S3150100A2A0FFFFFFFFFFFFFFFFFFFFFFFFFFFFFFFFB7
S3150100A2B0FFFFFFFFFFFFFFFFFFFFFFFFFFFFFFFFA7
S3150100A2C0FFFFFFFFFFFFFFFFFFFFFFFFFFFFFFFF97
S705000007A152
